{
  "_format": "hh-sol-artifact-1",
  "contractName": "marketPlaceBoilerPlate",
  "sourceName": "contracts/marketplaceBoilerplate.sol",
  "abi": [
    {
      "inputs": [],
      "stateMutability": "nonpayable",
      "type": "constructor"
    },
    {
      "anonymous": false,
      "inputs": [
        {
          "indexed": true,
          "internalType": "uint256",
          "name": "itemId",
          "type": "uint256"
        },
        {
          "indexed": true,
          "internalType": "address",
          "name": "nftContract",
          "type": "address"
        },
        {
          "indexed": true,
          "internalType": "uint256",
          "name": "tokenId",
          "type": "uint256"
        },
        {
          "indexed": false,
          "internalType": "address",
          "name": "seller",
          "type": "address"
        },
        {
          "indexed": false,
          "internalType": "address",
          "name": "owner",
          "type": "address"
        },
        {
          "indexed": false,
          "internalType": "uint256",
          "name": "price",
          "type": "uint256"
        },
        {
          "indexed": false,
          "internalType": "bool",
          "name": "sold",
          "type": "bool"
        }
      ],
      "name": "MarketItemCreated",
      "type": "event"
    },
    {
      "anonymous": false,
      "inputs": [
        {
          "indexed": true,
          "internalType": "uint256",
          "name": "itemId",
          "type": "uint256"
        },
        {
          "indexed": false,
          "internalType": "address",
          "name": "owner",
          "type": "address"
        }
      ],
      "name": "MarketItemSold",
      "type": "event"
    },
    {
      "inputs": [
        {
          "internalType": "address",
          "name": "nftContract",
          "type": "address"
        },
        {
          "internalType": "uint256",
          "name": "tokenId",
          "type": "uint256"
        },
        {
          "internalType": "uint256",
          "name": "price",
          "type": "uint256"
        }
      ],
      "name": "createMarketItem",
      "outputs": [],
      "stateMutability": "payable",
      "type": "function"
    },
    {
      "inputs": [
        {
          "internalType": "address",
          "name": "nftContract",
          "type": "address"
        },
        {
          "internalType": "uint256",
          "name": "itemId",
          "type": "uint256"
        }
      ],
      "name": "createMarketSale",
      "outputs": [],
      "stateMutability": "payable",
      "type": "function"
    },
    {
      "inputs": [],
      "name": "fetchMarketItems",
      "outputs": [
        {
          "components": [
            {
              "internalType": "uint256",
              "name": "itemId",
              "type": "uint256"
            },
            {
              "internalType": "address",
              "name": "nftContract",
              "type": "address"
            },
            {
              "internalType": "uint256",
              "name": "tokenId",
              "type": "uint256"
            },
            {
              "internalType": "address payable",
              "name": "seller",
              "type": "address"
            },
            {
              "internalType": "address payable",
              "name": "owner",
              "type": "address"
            },
            {
              "internalType": "uint256",
              "name": "price",
              "type": "uint256"
            },
            {
              "internalType": "bool",
              "name": "sold",
              "type": "bool"
            }
          ],
          "internalType": "struct marketPlaceBoilerPlate.MarketItem[]",
          "name": "",
          "type": "tuple[]"
        }
      ],
      "stateMutability": "view",
      "type": "function"
    },
    {
      "inputs": [],
      "name": "owner",
      "outputs": [
        {
          "internalType": "address",
          "name": "",
          "type": "address"
        }
      ],
      "stateMutability": "view",
      "type": "function"
    }
  ],
  "bytecode": "0x608060405234801561001057600080fd5b50600160008190555033600360006101000a81548173ffffffffffffffffffffffffffffffffffffffff021916908373ffffffffffffffffffffffffffffffffffffffff160217905550611185806100696000396000f3fe60806040526004361061003f5760003560e01c80630f08efe01461004457806358eb2df51461006f5780638da5cb5b1461008b578063c23b139e146100b6575b600080fd5b34801561005057600080fd5b506100596100d2565b6040516100669190610e0f565b60405180910390f35b61008960048036038101906100849190610b30565b6103e8565b005b34801561009757600080fd5b506100a0610708565b6040516100ad9190610d78565b60405180910390f35b6100d060048036038101906100cb9190610af4565b61072e565b005b606060006100e06001610a25565b905060006100ee6002610a25565b6100f86001610a25565b6101029190610f51565b90506000808267ffffffffffffffff811115610147577f4e487b7100000000000000000000000000000000000000000000000000000000600052604160045260246000fd5b60405190808252806020026020018201604052801561018057816020015b61016d610a49565b8152602001906001900390816101655790505b50905060005b848110156103dd57600073ffffffffffffffffffffffffffffffffffffffff16600460006001846101b79190610efb565b815260200190815260200160002060040160009054906101000a900473ffffffffffffffffffffffffffffffffffffffff1673ffffffffffffffffffffffffffffffffffffffff1614156103ca5760006001826102149190610efb565b90506000600460008381526020019081526020016000209050806040518060e0016040529081600082015481526020016001820160009054906101000a900473ffffffffffffffffffffffffffffffffffffffff1673ffffffffffffffffffffffffffffffffffffffff1673ffffffffffffffffffffffffffffffffffffffff168152602001600282015481526020016003820160009054906101000a900473ffffffffffffffffffffffffffffffffffffffff1673ffffffffffffffffffffffffffffffffffffffff1673ffffffffffffffffffffffffffffffffffffffff1681526020016004820160009054906101000a900473ffffffffffffffffffffffffffffffffffffffff1673ffffffffffffffffffffffffffffffffffffffff1673ffffffffffffffffffffffffffffffffffffffff168152602001600582015481526020016006820160009054906101000a900460ff1615151515815250508486815181106103ad577f4e487b7100000000000000000000000000000000000000000000000000000000600052603260045260246000fd5b60200260200101819052506001856103c59190610efb565b945050505b80806103d590610fdf565b915050610186565b508094505050505090565b6002600054141561042e576040517f08c379a000000000000000000000000000000000000000000000000000000000815260040161042590610e71565b60405180910390fd5b600260008190555060008111610479576040517f08c379a000000000000000000000000000000000000000000000000000000000815260040161047090610e91565b60405180910390fd5b6104836001610a33565b600061048f6001610a25565b90506040518060e001604052808281526020018573ffffffffffffffffffffffffffffffffffffffff1681526020018481526020013373ffffffffffffffffffffffffffffffffffffffff168152602001600073ffffffffffffffffffffffffffffffffffffffff16815260200183815260200160001515815250600460008381526020019081526020016000206000820151816000015560208201518160010160006101000a81548173ffffffffffffffffffffffffffffffffffffffff021916908373ffffffffffffffffffffffffffffffffffffffff1602179055506040820151816002015560608201518160030160006101000a81548173ffffffffffffffffffffffffffffffffffffffff021916908373ffffffffffffffffffffffffffffffffffffffff16021790555060808201518160040160006101000a81548173ffffffffffffffffffffffffffffffffffffffff021916908373ffffffffffffffffffffffffffffffffffffffff16021790555060a0820151816005015560c08201518160060160006101000a81548160ff0219169083151502179055509050508373ffffffffffffffffffffffffffffffffffffffff166323b872dd3330866040518463ffffffff1660e01b815260040161067093929190610d93565b600060405180830381600087803b15801561068a57600080fd5b505af115801561069e573d6000803e3d6000fd5b50505050828473ffffffffffffffffffffffffffffffffffffffff16827f045dfa01dcba2b36aba1d3dc4a874f4b0c5d2fbeb8d2c4b34a7d88c8d8f929d13360008760006040516106f29493929190610dca565b60405180910390a4506001600081905550505050565b600360009054906101000a900473ffffffffffffffffffffffffffffffffffffffff1681565b60026000541415610774576040517f08c379a000000000000000000000000000000000000000000000000000000000815260040161076b90610e71565b60405180910390fd5b600260008190555060006004600083815260200190815260200160002060050154905060006004600084815260200190815260200160002060020154905060006004600085815260200190815260200160002060060160009054906101000a900460ff16905082341461081c576040517f08c379a000000000000000000000000000000000000000000000000000000000815260040161081390610e31565b60405180910390fd5b600115158115151415610864576040517f08c379a000000000000000000000000000000000000000000000000000000000815260040161085b90610e51565b60405180910390fd5b837f2073b2706c235effb1e3840575370a51749afd8181b4018f93bff955d50792cb336040516108949190610d78565b60405180910390a26004600085815260200190815260200160002060030160009054906101000a900473ffffffffffffffffffffffffffffffffffffffff1673ffffffffffffffffffffffffffffffffffffffff166108fc349081150290604051600060405180830381858888f19350505050158015610918573d6000803e3d6000fd5b508473ffffffffffffffffffffffffffffffffffffffff166323b872dd3033856040518463ffffffff1660e01b815260040161095693929190610d93565b600060405180830381600087803b15801561097057600080fd5b505af1158015610984573d6000803e3d6000fd5b50505050336004600086815260200190815260200160002060040160006101000a81548173ffffffffffffffffffffffffffffffffffffffff021916908373ffffffffffffffffffffffffffffffffffffffff1602179055506109e76002610a33565b60016004600086815260200190815260200160002060060160006101000a81548160ff02191690831515021790555050505060016000819055505050565b600081600001549050919050565b6001816000016000828254019250508190555050565b6040518060e0016040528060008152602001600073ffffffffffffffffffffffffffffffffffffffff16815260200160008152602001600073ffffffffffffffffffffffffffffffffffffffff168152602001600073ffffffffffffffffffffffffffffffffffffffff168152602001600081526020016000151581525090565b600081359050610ad981611121565b92915050565b600081359050610aee81611138565b92915050565b60008060408385031215610b0757600080fd5b6000610b1585828601610aca565b9250506020610b2685828601610adf565b9150509250929050565b600080600060608486031215610b4557600080fd5b6000610b5386828701610aca565b9350506020610b6486828701610adf565b9250506040610b7586828701610adf565b9150509250925092565b6000610b8b8383610ccc565b60e08301905092915050565b610ba081610f97565b82525050565b610baf81610f85565b82525050565b610bbe81610f85565b82525050565b6000610bcf82610ec1565b610bd98185610ed9565b9350610be483610eb1565b8060005b83811015610c15578151610bfc8882610b7f565b9750610c0783610ecc565b925050600181019050610be8565b5085935050505092915050565b610c2b81610fa9565b82525050565b610c3a81610fa9565b82525050565b6000610c4d604083610eea565b9150610c5882611057565b604082019050919050565b6000610c70601e83610eea565b9150610c7b826110a6565b602082019050919050565b6000610c93601f83610eea565b9150610c9e826110cf565b602082019050919050565b6000610cb6601c83610eea565b9150610cc1826110f8565b602082019050919050565b60e082016000820151610ce26000850182610d5a565b506020820151610cf56020850182610ba6565b506040820151610d086040850182610d5a565b506060820151610d1b6060850182610b97565b506080820151610d2e6080850182610b97565b5060a0820151610d4160a0850182610d5a565b5060c0820151610d5460c0850182610c22565b50505050565b610d6381610fd5565b82525050565b610d7281610fd5565b82525050565b6000602082019050610d8d6000830184610bb5565b92915050565b6000606082019050610da86000830186610bb5565b610db56020830185610bb5565b610dc26040830184610d69565b949350505050565b6000608082019050610ddf6000830187610bb5565b610dec6020830186610bb5565b610df96040830185610d69565b610e066060830184610c31565b95945050505050565b60006020820190508181036000830152610e298184610bc4565b905092915050565b60006020820190508181036000830152610e4a81610c40565b9050919050565b60006020820190508181036000830152610e6a81610c63565b9050919050565b60006020820190508181036000830152610e8a81610c86565b9050919050565b60006020820190508181036000830152610eaa81610ca9565b9050919050565b6000819050602082019050919050565b600081519050919050565b6000602082019050919050565b600082825260208201905092915050565b600082825260208201905092915050565b6000610f0682610fd5565b9150610f1183610fd5565b9250827fffffffffffffffffffffffffffffffffffffffffffffffffffffffffffffffff03821115610f4657610f45611028565b5b828201905092915050565b6000610f5c82610fd5565b9150610f6783610fd5565b925082821015610f7a57610f79611028565b5b828203905092915050565b6000610f9082610fb5565b9050919050565b6000610fa282610fb5565b9050919050565b60008115159050919050565b600073ffffffffffffffffffffffffffffffffffffffff82169050919050565b6000819050919050565b6000610fea82610fd5565b91507fffffffffffffffffffffffffffffffffffffffffffffffffffffffffffffffff82141561101d5761101c611028565b5b600182019050919050565b7f4e487b7100000000000000000000000000000000000000000000000000000000600052601160045260246000fd5b7f506c65617365207375626d6974207468652061736b696e67207072696365206960008201527f6e206f7264657220746f20636f6d706c65746520746865207075726368617365602082015250565b7f546869732053616c652068617320616c726564792066696e6e69736865640000600082015250565b7f5265656e7472616e637947756172643a207265656e7472616e742063616c6c00600082015250565b7f5072696365206d7573742062652067726561746572207468616e203000000000600082015250565b61112a81610f85565b811461113557600080fd5b50565b61114181610fd5565b811461114c57600080fd5b5056fea2646970667358221220be3b75883f916ca490b0d75b781937a58b34cd0d0b2904b314a80b70c79f830e64736f6c63430008040033",
  "linkReferences": {},
  "deployedLinkReferences": {}
}